{
  "_format": "hh-sol-artifact-1",
  "contractName": "MocRC20",
  "sourceName": "contracts/tokens/MocRC20.sol",
  "abi": [
    {
      "inputs": [],
      "stateMutability": "nonpayable",
      "type": "constructor"
    },
    {
      "inputs": [],
      "name": "InvalidAddress",
      "type": "error"
    },
    {
      "inputs": [],
      "name": "InvalidValue",
      "type": "error"
    },
    {
      "inputs": [],
      "name": "NotAuthorizedChanger",
      "type": "error"
    },
    {
      "anonymous": false,
      "inputs": [
        {
          "indexed": false,
          "internalType": "address",
          "name": "previousAdmin",
          "type": "address"
        },
        {
          "indexed": false,
          "internalType": "address",
          "name": "newAdmin",
          "type": "address"
        }
      ],
      "name": "AdminChanged",
      "type": "event"
    },
    {
      "anonymous": false,
      "inputs": [
        {
          "indexed": true,
          "internalType": "address",
          "name": "owner",
          "type": "address"
        },
        {
          "indexed": true,
          "internalType": "address",
          "name": "spender",
          "type": "address"
        },
        {
          "indexed": false,
          "internalType": "uint256",
          "name": "value",
          "type": "uint256"
        }
      ],
      "name": "Approval",
      "type": "event"
    },
    {
      "anonymous": false,
      "inputs": [
        {
          "indexed": true,
          "internalType": "address",
          "name": "beacon",
          "type": "address"
        }
      ],
      "name": "BeaconUpgraded",
      "type": "event"
    },
    {
      "anonymous": false,
      "inputs": [
        {
          "indexed": false,
          "internalType": "uint8",
          "name": "version",
          "type": "uint8"
        }
      ],
      "name": "Initialized",
      "type": "event"
    },
    {
      "anonymous": false,
      "inputs": [
        {
          "indexed": true,
          "internalType": "bytes32",
          "name": "role",
          "type": "bytes32"
        },
        {
          "indexed": true,
          "internalType": "bytes32",
          "name": "previousAdminRole",
          "type": "bytes32"
        },
        {
          "indexed": true,
          "internalType": "bytes32",
          "name": "newAdminRole",
          "type": "bytes32"
        }
      ],
      "name": "RoleAdminChanged",
      "type": "event"
    },
    {
      "anonymous": false,
      "inputs": [
        {
          "indexed": true,
          "internalType": "bytes32",
          "name": "role",
          "type": "bytes32"
        },
        {
          "indexed": true,
          "internalType": "address",
          "name": "account",
          "type": "address"
        },
        {
          "indexed": true,
          "internalType": "address",
          "name": "sender",
          "type": "address"
        }
      ],
      "name": "RoleGranted",
      "type": "event"
    },
    {
      "anonymous": false,
      "inputs": [
        {
          "indexed": true,
          "internalType": "bytes32",
          "name": "role",
          "type": "bytes32"
        },
        {
          "indexed": true,
          "internalType": "address",
          "name": "account",
          "type": "address"
        },
        {
          "indexed": true,
          "internalType": "address",
          "name": "sender",
          "type": "address"
        }
      ],
      "name": "RoleRevoked",
      "type": "event"
    },
    {
      "anonymous": false,
      "inputs": [
        {
          "indexed": true,
          "internalType": "address",
          "name": "from",
          "type": "address"
        },
        {
          "indexed": true,
          "internalType": "address",
          "name": "to",
          "type": "address"
        },
        {
          "indexed": false,
          "internalType": "uint256",
          "name": "value",
          "type": "uint256"
        }
      ],
      "name": "Transfer",
      "type": "event"
    },
    {
      "anonymous": false,
      "inputs": [
        {
          "indexed": true,
          "internalType": "address",
          "name": "implementation",
          "type": "address"
        }
      ],
      "name": "Upgraded",
      "type": "event"
    },
    {
      "inputs": [],
      "name": "BURNER_ROLE",
      "outputs": [
        {
          "internalType": "bytes32",
          "name": "",
          "type": "bytes32"
        }
      ],
      "stateMutability": "view",
      "type": "function"
    },
    {
      "inputs": [],
      "name": "DEFAULT_ADMIN_ROLE",
      "outputs": [
        {
          "internalType": "bytes32",
          "name": "",
          "type": "bytes32"
        }
      ],
      "stateMutability": "view",
      "type": "function"
    },
    {
      "inputs": [],
      "name": "MINTER_ROLE",
      "outputs": [
        {
          "internalType": "bytes32",
          "name": "",
          "type": "bytes32"
        }
      ],
      "stateMutability": "view",
      "type": "function"
    },
    {
      "inputs": [
        {
          "internalType": "address",
          "name": "owner",
          "type": "address"
        },
        {
          "internalType": "address",
          "name": "spender",
          "type": "address"
        }
      ],
      "name": "allowance",
      "outputs": [
        {
          "internalType": "uint256",
          "name": "",
          "type": "uint256"
        }
      ],
      "stateMutability": "view",
      "type": "function"
    },
    {
      "inputs": [
        {
          "internalType": "address",
          "name": "spender",
          "type": "address"
        },
        {
          "internalType": "uint256",
          "name": "amount",
          "type": "uint256"
        }
      ],
      "name": "approve",
      "outputs": [
        {
          "internalType": "bool",
          "name": "",
          "type": "bool"
        }
      ],
      "stateMutability": "nonpayable",
      "type": "function"
    },
    {
      "inputs": [
        {
          "internalType": "address",
          "name": "account",
          "type": "address"
        }
      ],
      "name": "balanceOf",
      "outputs": [
        {
          "internalType": "uint256",
          "name": "",
          "type": "uint256"
        }
      ],
      "stateMutability": "view",
      "type": "function"
    },
    {
      "inputs": [
        {
          "internalType": "address",
          "name": "to",
          "type": "address"
        },
        {
          "internalType": "uint256",
          "name": "amount",
          "type": "uint256"
        }
      ],
      "name": "burn",
      "outputs": [],
      "stateMutability": "nonpayable",
      "type": "function"
    },
    {
      "inputs": [
        {
          "internalType": "contract IGovernor",
          "name": "newGovernor_",
          "type": "address"
        }
      ],
      "name": "changeGovernor",
      "outputs": [],
      "stateMutability": "nonpayable",
      "type": "function"
    },
    {
      "inputs": [],
      "name": "decimals",
      "outputs": [
        {
          "internalType": "uint8",
          "name": "",
          "type": "uint8"
        }
      ],
      "stateMutability": "view",
      "type": "function"
    },
    {
      "inputs": [
        {
          "internalType": "address",
          "name": "spender",
          "type": "address"
        },
        {
          "internalType": "uint256",
          "name": "subtractedValue",
          "type": "uint256"
        }
      ],
      "name": "decreaseAllowance",
      "outputs": [
        {
          "internalType": "bool",
          "name": "",
          "type": "bool"
        }
      ],
      "stateMutability": "nonpayable",
      "type": "function"
    },
    {
      "inputs": [
        {
          "internalType": "bytes32",
          "name": "role",
          "type": "bytes32"
        }
      ],
      "name": "getRoleAdmin",
      "outputs": [
        {
          "internalType": "bytes32",
          "name": "",
          "type": "bytes32"
        }
      ],
      "stateMutability": "view",
      "type": "function"
    },
    {
      "inputs": [
        {
          "internalType": "bytes32",
          "name": "role",
          "type": "bytes32"
        },
        {
          "internalType": "uint256",
          "name": "index",
          "type": "uint256"
        }
      ],
      "name": "getRoleMember",
      "outputs": [
        {
          "internalType": "address",
          "name": "",
          "type": "address"
        }
      ],
      "stateMutability": "view",
      "type": "function"
    },
    {
      "inputs": [
        {
          "internalType": "bytes32",
          "name": "role",
          "type": "bytes32"
        }
      ],
      "name": "getRoleMemberCount",
      "outputs": [
        {
          "internalType": "uint256",
          "name": "",
          "type": "uint256"
        }
      ],
      "stateMutability": "view",
      "type": "function"
    },
    {
      "inputs": [],
      "name": "governor",
      "outputs": [
        {
          "internalType": "contract IGovernor",
          "name": "",
          "type": "address"
        }
      ],
      "stateMutability": "view",
      "type": "function"
    },
    {
      "inputs": [
        {
          "internalType": "bytes32",
          "name": "role",
          "type": "bytes32"
        },
        {
          "internalType": "address",
          "name": "account",
          "type": "address"
        }
      ],
      "name": "grantRole",
      "outputs": [],
      "stateMutability": "nonpayable",
      "type": "function"
    },
    {
      "inputs": [
        {
          "internalType": "address",
          "name": "_account",
          "type": "address"
        }
      ],
      "name": "hasFullRoles",
      "outputs": [
        {
          "internalType": "bool",
          "name": "",
          "type": "bool"
        }
      ],
      "stateMutability": "view",
      "type": "function"
    },
    {
      "inputs": [
        {
          "internalType": "bytes32",
          "name": "role",
          "type": "bytes32"
        },
        {
          "internalType": "address",
          "name": "account",
          "type": "address"
        }
      ],
      "name": "hasRole",
      "outputs": [
        {
          "internalType": "bool",
          "name": "",
          "type": "bool"
        }
      ],
      "stateMutability": "view",
      "type": "function"
    },
    {
      "inputs": [
        {
          "internalType": "address",
          "name": "spender",
          "type": "address"
        },
        {
          "internalType": "uint256",
          "name": "addedValue",
          "type": "uint256"
        }
      ],
      "name": "increaseAllowance",
      "outputs": [
        {
          "internalType": "bool",
          "name": "",
          "type": "bool"
        }
      ],
      "stateMutability": "nonpayable",
      "type": "function"
    },
    {
      "inputs": [
        {
          "internalType": "string",
          "name": "name_",
          "type": "string"
        },
        {
          "internalType": "string",
          "name": "symbol_",
          "type": "string"
        },
        {
          "internalType": "address",
          "name": "admin_",
          "type": "address"
        },
        {
          "internalType": "contract IGovernor",
          "name": "governor_",
          "type": "address"
        }
      ],
      "name": "initialize",
      "outputs": [],
      "stateMutability": "nonpayable",
      "type": "function"
    },
    {
      "inputs": [
        {
          "internalType": "address",
          "name": "to",
          "type": "address"
        },
        {
          "internalType": "uint256",
          "name": "amount",
          "type": "uint256"
        }
      ],
      "name": "mint",
      "outputs": [],
      "stateMutability": "nonpayable",
      "type": "function"
    },
    {
      "inputs": [],
      "name": "name",
      "outputs": [
        {
          "internalType": "string",
          "name": "",
          "type": "string"
        }
      ],
      "stateMutability": "view",
      "type": "function"
    },
    {
      "inputs": [],
      "name": "proxiableUUID",
      "outputs": [
        {
          "internalType": "bytes32",
          "name": "",
          "type": "bytes32"
        }
      ],
      "stateMutability": "view",
      "type": "function"
    },
    {
      "inputs": [
        {
          "internalType": "bytes32",
          "name": "role",
          "type": "bytes32"
        },
        {
          "internalType": "address",
          "name": "account",
          "type": "address"
        }
      ],
      "name": "renounceRole",
      "outputs": [],
      "stateMutability": "nonpayable",
      "type": "function"
    },
    {
      "inputs": [
        {
          "internalType": "bytes32",
          "name": "role",
          "type": "bytes32"
        },
        {
          "internalType": "address",
          "name": "account",
          "type": "address"
        }
      ],
      "name": "revokeRole",
      "outputs": [],
      "stateMutability": "nonpayable",
      "type": "function"
    },
    {
      "inputs": [
        {
          "internalType": "bytes4",
          "name": "interfaceId",
          "type": "bytes4"
        }
      ],
      "name": "supportsInterface",
      "outputs": [
        {
          "internalType": "bool",
          "name": "",
          "type": "bool"
        }
      ],
      "stateMutability": "view",
      "type": "function"
    },
    {
      "inputs": [],
      "name": "symbol",
      "outputs": [
        {
          "internalType": "string",
          "name": "",
          "type": "string"
        }
      ],
      "stateMutability": "view",
      "type": "function"
    },
    {
      "inputs": [],
      "name": "totalSupply",
      "outputs": [
        {
          "internalType": "uint256",
          "name": "",
          "type": "uint256"
        }
      ],
      "stateMutability": "view",
      "type": "function"
    },
    {
      "inputs": [
        {
          "internalType": "address",
          "name": "to",
          "type": "address"
        },
        {
          "internalType": "uint256",
          "name": "amount",
          "type": "uint256"
        }
      ],
      "name": "transfer",
      "outputs": [
        {
          "internalType": "bool",
          "name": "",
          "type": "bool"
        }
      ],
      "stateMutability": "nonpayable",
      "type": "function"
    },
    {
      "inputs": [
        {
          "internalType": "address",
          "name": "from",
          "type": "address"
        },
        {
          "internalType": "address",
          "name": "to",
          "type": "address"
        },
        {
          "internalType": "uint256",
          "name": "amount",
          "type": "uint256"
        }
      ],
      "name": "transferFrom",
      "outputs": [
        {
          "internalType": "bool",
          "name": "",
          "type": "bool"
        }
      ],
      "stateMutability": "nonpayable",
      "type": "function"
    },
    {
      "inputs": [
        {
          "internalType": "address",
          "name": "newImplementation",
          "type": "address"
        }
      ],
      "name": "upgradeTo",
      "outputs": [],
      "stateMutability": "nonpayable",
      "type": "function"
    },
    {
      "inputs": [
        {
          "internalType": "address",
          "name": "newImplementation",
          "type": "address"
        },
        {
          "internalType": "bytes",
          "name": "data",
          "type": "bytes"
        }
      ],
      "name": "upgradeToAndCall",
      "outputs": [],
      "stateMutability": "payable",
      "type": "function"
    }
  ],
  "bytecode": "0x60a080604052346100dc57306080526000549060ff8260081c1661008a575060ff8082161061004f575b60405161289c90816100e28239608051818181610fa0015281816110a001526115ce0152f35b60ff90811916176000557f7f26b83ff96e1f2b6a682f133852f6798a09c465da95921460cefb3847402498602060405160ff8152a138610029565b62461bcd60e51b815260206004820152602760248201527f496e697469616c697a61626c653a20636f6e747261637420697320696e697469604482015266616c697a696e6760c81b6064820152608490fd5b600080fdfe608080604052600436101561001357600080fd5b60003560e01c90816301ffc9a714611bc85750806306fdde0314611b34578063095ea7b314611b0e5780630c340a2414611ae457806318160ddd14611ac657806323b872dd14611a08578063248a9ca3146119d9578063282c51f3146119b05780632f2ff15d146118fb578063313ce567146118df57806336568abe1461184d5780633659cfe6146115aa578063395093511461155957806340c10f191461136d5780634f1ef2861461105157806352d1902d14610f8d57806370a0823114610f535780638f15b414146109025780639010d07c146108bb57806391d148541461086e57806395d89b41146107905780639dc29fac14610453578063a217fddf14610437578063a457c2d714610390578063a9059cbb1461035f578063ca15c87314610333578063d53913931461030a578063d547741f146102c9578063d55fd8451461020d578063dd62ed3e146101bc5763e4c0aaf41461017457600080fd5b346101b75760203660031901126101b75761018d611c84565b6101956126c3565b61019180546001600160a01b0319166001600160a01b03909216919091179055005b600080fd5b346101b75760403660031901126101b7576101d5611c84565b6101dd611c9a565b9060018060a01b0380911660005260ca602052604060002091166000526020526020604060002054604051908152f35b346101b7576020806003193601126101b757610227611c84565b60008051602061282783398151915260009081526065835260408082206001600160a01b0390931680835292845290205460ff169081610297575b81610273575b506040519015158152f35b90506000805260658252604060002090600052815260ff6040600020541682610268565b90506000805160206127e783398151915260005260658252604060002081600052825260ff6040600020541690610262565b346101b75760403660031901126101b7576103086004356102e8611c9a565b90806000526065602052610303600160406000200154611d7b565b611f28565b005b346101b75760003660031901126101b75760206040516000805160206128278339815191528152f35b346101b75760203660031901126101b75760043560005260976020526020604060002054604051908152f35b346101b75760403660031901126101b75761038561037b611c84565b6024359033612160565b602060405160018152f35b346101b75760403660031901126101b7576103a9611c84565b602435903360005260ca602052604060002060018060a01b038216600052602052604060002054918083106103e457610385920390336122d0565b60405162461bcd60e51b815260206004820152602560248201527f45524332303a2064656372656173656420616c6c6f77616e63652062656c6f77604482015264207a65726f60d81b6064820152608490fd5b346101b75760003660031901126101b757602060405160008152f35b346101b75760403660031901126101b75761046c611c84565b3360009081527f32ae7f8bc6372d23139dc578c86992e32a38d779ef7d3b755ec5abbb40a1d2176020908152604090912054602492833592916000805160206127e78339815191529060ff16156105c657506001600160a01b0316918215610578578260005260c982526040600020548181106105295791817fddf252ad1be2c89b69c2b068fc378daa952ba7f163c4a11628f55a4df523b3ef928594600096875260c984520360408620558060cb540360cb55604051908152a3005b60405162461bcd60e51b8152600481018490526022818701527f45524332303a206275726e20616d6f756e7420657863656564732062616c616e604482015261636560f01b6064820152608490fd5b60405162461bcd60e51b8152600481018390526021818601527f45524332303a206275726e2066726f6d20746865207a65726f206164647265736044820152607360f81b6064820152608490fd5b9050836105d233612431565b604051916105df83611ccc565b6042835284830193606036863783511561077b5760308553835160019081101561076657607860218601536041905b8082116106f85750506106b6576106b261066261069a604888888861068b89604051978576020b1b1b2b9b9a1b7b73a3937b61d1030b1b1b7bab73a1604d1b8a978801528251928391603789019101611c35565b8401917001034b99036b4b9b9b4b733903937b6329607d1b603784015251809386840190611c35565b01036028810184520182611ce8565b60405162461bcd60e51b815291829160048301611c58565b0390fd5b606490856040519162461bcd60e51b83528160048401528201527f537472696e67733a20686578206c656e67746820696e73756666696369656e746044820152fd5b9091600f81166010811015610751576f181899199a1a9b1b9c1cb0b131b232b360811b901a610727848861240a565b5360041c91801561073c57600019019061060e565b83634e487b7160e01b60005260116004526000fd5b84634e487b7160e01b60005260326004526000fd5b82634e487b7160e01b60005260326004526000fd5b50634e487b7160e01b60009081526032600452fd5b346101b75760003660031901126101b757604051600060cd546107b281612103565b8084529060019081811690811561084757506001146107ec575b6107e8846107dc81860382611ce8565b60405191829182611c58565b0390f35b60cd600090815292507f83978b4c69c48dd978ab43fe30f077615294f938fb7f936d9eb340e51ea7db2e5b82841061082f5750505081016020016107dc826107cc565b80546020858701810191909152909301928101610817565b60ff191660208087019190915292151560051b850190920192506107dc91508390506107cc565b346101b75760403660031901126101b757610887611c9a565b600435600052606560205260406000209060018060a01b0316600052602052602060ff604060002054166040519015158152f35b346101b75760403660031901126101b757600435600052609760205260206108e9602435604060002061252f565b905460405160039290921b1c6001600160a01b03168152f35b346101b75760803660031901126101b75760043567ffffffffffffffff81116101b757610933903690600401611d5d565b60243567ffffffffffffffff81116101b757610953903690600401611d5d565b906001600160a01b0360443581811681036101b75760643582811681036101b7576000549360ff8560081c161594858096610f46575b8015610f2f575b15610ed35760ff19811660011760005585610ec1575b506109ca60ff60005460081c166109bc81612766565b6109c581612766565b612766565b80519067ffffffffffffffff8211610db55781906109e960cc54612103565b601f8111610e4a575b50602090601f8311600114610dd657600092610dcb575b50508160011b916000199060031b1c19161760cc555b84519467ffffffffffffffff8611610db557610a3c60cd54612103565b601f8111610d50575b50602090601f8711600114610cc657958091610bb99697600092610cbb575b50508160011b916000199060031b1c19161760cd555b610a9860ff60005460081c16610a8f81612766565b6109bc81612766565b61019180546001600160a01b03191691841691909117905580821660009081527fffdfc1249c027f9191656349feb0761381bb32c9f557e01f419fd08754bf5a1b602052604090205460659060ff1615610c7e575b600080526097602052610b228284167f683723e34a772b6e4f2c919bba7fa32ed8ea11a8325f54da7db716e9d9dd98c7612547565b506000805160206128278339815191528060005281602052604060002084841660005260205260ff6040600020541615610c3b575b6000526097602052610b6f8383166040600020612547565b506000805160206127e7833981519152908160005280602052604060002084841660005260205260ff6040600020541615610bf8575b506000526097602052166040600020612547565b50610bc057005b61ff0019600054166000557f7f26b83ff96e1f2b6a682f133852f6798a09c465da95921460cefb3847402498602060405160018152a1005b8160005260205260406000208383166000526020526040600020600160ff1982541617905533838316826000805160206127c7833981519152600080a485610ba5565b806000528160205260406000208484166000526020526040600020600160ff1982541617905533848416826000805160206127c7833981519152600080a4610b57565b60008080526020828152604080832085871680855292528220805460ff1916600117905533916000805160206127c78339815191528180a4610aed565b015190508780610a64565b90601f1987169160cd6000527f83978b4c69c48dd978ab43fe30f077615294f938fb7f936d9eb340e51ea7db2e9260005b818110610d385750916001939189610bb9999a9410610d1f575b505050811b0160cd55610a7a565b015160001960f88460031b161c19169055878080610d11565b92936020600181928786015181550195019301610cf7565b60cd6000527f83978b4c69c48dd978ab43fe30f077615294f938fb7f936d9eb340e51ea7db2e601f880160051c81019160208910610dab575b601f0160051c01905b818110610d9f5750610a45565b60008155600101610d92565b9091508190610d89565b634e487b7160e01b600052604160045260246000fd5b015190508780610a09565b60cc60009081526000805160206128478339815191529350601f198516905b818110610e325750908460019594939210610e19575b505050811b0160cc55610a1f565b015160001960f88460031b161c19169055878080610e0b565b92936020600181928786015181550195019301610df5565b90915060cc600052601f830160051c600080516020612847833981519152019060208410610eab575b90601f8493920160051c60008051602061284783398151915201905b818110610e9c57506109f2565b60008155849350600101610e8f565b6000805160206128478339815191529150610e73565b61ffff191661010117600055866109a6565b60405162461bcd60e51b815260206004820152602e60248201527f496e697469616c697a61626c653a20636f6e747261637420697320616c72656160448201526d191e481a5b9a5d1a585b1a5e995960921b6064820152608490fd5b50303b1580156109905750600160ff821614610990565b50600160ff821610610989565b346101b75760203660031901126101b7576001600160a01b03610f74611c84565b1660005260c96020526020604060002054604051908152f35b346101b75760003660031901126101b7577f00000000000000000000000000000000000000000000000000000000000000006001600160a01b03163003610fe65760206040516000805160206128078339815191528152f35b60405162461bcd60e51b815260206004820152603860248201527f555550535570677261646561626c653a206d757374206e6f742062652063616c60448201527f6c6564207468726f7567682064656c656761746563616c6c00000000000000006064820152608490fd5b60403660031901126101b757611065611c84565b60243567ffffffffffffffff81116101b757366023820112156101b757611096903690602481600401359101611d26565b6001600160a01b037f000000000000000000000000000000000000000000000000000000000000000081169291906110d030851415611fb1565b6110ed600080516020612807833981519152948286541614612012565b6110f56126c3565b7f4910fdfa16fed3260ed0e7147f7cc6da11a60208b5b9406d12a635614ffd91435460ff161561112b5750506103089150612073565b82919216604051936352d1902d60e01b85526020948581600481865afa6000918161133e575b506111b25760405162461bcd60e51b815260048101879052602e60248201527f45524331393637557067726164653a206e657720696d706c656d656e7461746960448201526d6f6e206973206e6f74205555505360901b6064820152608490fd5b036112e7576111c082612073565b604051907fbc7cd75a20ee27fd9adebab32041f755214dbc6bffa90cc0225b39da2e5c2d3b600080a28251158015906112df575b6111fa57005b813b1561128e57506000828192856103089695519201905af43d15611286573d9061122482611d0a565b916112326040519384611ce8565b82523d60008484013e5b7f416464726573733a206c6f772d6c6576656c2064656c65676174652063616c6c6040519361126a85611cb0565b60278552840152660819985a5b195960ca1b60408401526123d2565b60609061123c565b62461bcd60e51b815260048101849052602660248201527f416464726573733a2064656c65676174652063616c6c20746f206e6f6e2d636f6044820152651b9d1c9858dd60d21b6064820152608490fd5b5060016111f4565b60405162461bcd60e51b815260048101859052602960248201527f45524331393637557067726164653a20756e737570706f727465642070726f786044820152681a58589b195555525160ba1b6064820152608490fd5b9091508681813d8311611366575b6113568183611ce8565b810103126101b757519087611151565b503d61134c565b346101b75760403660031901126101b757611386611c84565b3360009081527fa0f6cebec7fb889cc5ac88647269c4c0108fb926abd2111b551f234b348876df60209081526040909120546024928335916000805160206128278339815191529060ff161561147957506001600160a01b03169283156114365750600091816114197fddf252ad1be2c89b69c2b068fc378daa952ba7f163c4a11628f55a4df523b3ef9360cb5461213d565b60cb5584845260c9825260408420818154019055604051908152a3005b82601f6064926040519262461bcd60e51b845260048401528201527f45524332303a206d696e7420746f20746865207a65726f2061646472657373006044820152fd5b83908561148533612431565b6040519161149283611ccc565b6042835284830193606036863783511561077b5760308553835160019081101561076657607860218601536041905b8082116115155750506106b6576106b261066261069a604888888861068b89604051978576020b1b1b2b9b9a1b7b73a3937b61d1030b1b1b7bab73a1604d1b8a978801528251928391603789019101611c35565b9091600f81166010811015610751576f181899199a1a9b1b9c1cb0b131b232b360811b901a611544848861240a565b5360041c91801561073c5760001901906114c1565b346101b75760403660031901126101b757610385611575611c84565b3360005260ca602052604060002060018060a01b0382166000526020526115a360243560406000205461213d565b90336122d0565b346101b7576020806003193601126101b7576115c4611c84565b6001600160a01b037f000000000000000000000000000000000000000000000000000000000000000081166115fb30821415611fb1565b611618600080516020612807833981519152918383541614612012565b6116206126c3565b604051908482019282841067ffffffffffffffff851117610db557836040526000835260ff7f4910fdfa16fed3260ed0e7147f7cc6da11a60208b5b9406d12a635614ffd9143541660001461167d57505050506103089150612073565b8416906040516352d1902d60e01b81528681600481865afa6000918161181e575b506116ff5760405162461bcd60e51b815260048101889052602e60248201527f45524331393637557067726164653a206e657720696d706c656d656e7461746960448201526d6f6e206973206e6f74205555505360901b6064820152608490fd5b036117c75761170d84612073565b604051907fbc7cd75a20ee27fd9adebab32041f755214dbc6bffa90cc0225b39da2e5c2d3b600080a28151158015906117bf575b61174757005b833b1561176e57506103089392600092839251915af43d15611286573d9061122482611d0a565b62461bcd60e51b815260048101859052602660248201527f416464726573733a2064656c65676174652063616c6c20746f206e6f6e2d636f6044820152651b9d1c9858dd60d21b6064820152608490fd5b506000611741565b60405162461bcd60e51b815260048101869052602960248201527f45524331393637557067726164653a20756e737570706f727465642070726f786044820152681a58589b195555525160ba1b6064820152608490fd5b9091508781813d8311611846575b6118368183611ce8565b810103126101b75751908861169e565b503d61182c565b346101b75760403660031901126101b757611866611c9a565b336001600160a01b038216036118825761030890600435611f28565b60405162461bcd60e51b815260206004820152602f60248201527f416363657373436f6e74726f6c3a2063616e206f6e6c792072656e6f756e636560448201526e103937b632b9903337b91039b2b63360891b6064820152608490fd5b346101b75760003660031901126101b757602060405160128152f35b346101b75760403660031901126101b757610308600435609761191c611c9a565b918060005260209060658252611939600160406000200154611d7b565b60008181526065835260408082206001600160a01b0390961680835295845290205460ff1615611972575b600052526040600020612547565b806000526065825260406000208460005282526040600020600160ff198254161790553384826000805160206127c7833981519152600080a4611964565b346101b75760003660031901126101b75760206040516000805160206127e78339815191528152f35b346101b75760203660031901126101b75760043560005260656020526020600160406000200154604051908152f35b346101b75760603660031901126101b757611a21611c84565b611a29611c9a565b6044359060018060a01b03831660005260ca602052604060002033600052602052604060002054926000198403611a65575b6103859350612160565b828410611a8157611a7c83610385950333836122d0565b611a5b565b60405162461bcd60e51b815260206004820152601d60248201527f45524332303a20696e73756666696369656e7420616c6c6f77616e63650000006044820152606490fd5b346101b75760003660031901126101b757602060cb54604051908152f35b346101b75760003660031901126101b757610191546040516001600160a01b039091168152602090f35b346101b75760403660031901126101b757610385611b2a611c84565b60243590336122d0565b346101b75760003660031901126101b757604051600060cc54611b5681612103565b808452906001908181169081156108475750600114611b7f576107e8846107dc81860382611ce8565b60cc600090815292506000805160206128478339815191525b828410611bb05750505081016020016107dc826107cc565b80546020858701810191909152909301928101611b98565b346101b75760203660031901126101b7576004359063ffffffff60e01b82168092036101b757602091635a05180f60e01b8114908115611c0a575b5015158152f35b637965db0b60e01b811491508115611c24575b5083611c03565b6301ffc9a760e01b14905083611c1d565b60005b838110611c485750506000910152565b8181015183820152602001611c38565b60409160208252611c788151809281602086015260208686019101611c35565b601f01601f1916010190565b600435906001600160a01b03821682036101b757565b602435906001600160a01b03821682036101b757565b6060810190811067ffffffffffffffff821117610db557604052565b6080810190811067ffffffffffffffff821117610db557604052565b90601f8019910116810190811067ffffffffffffffff821117610db557604052565b67ffffffffffffffff8111610db557601f01601f191660200190565b929192611d3282611d0a565b91611d406040519384611ce8565b8294818452818301116101b7578281602093846000960137010152565b9080601f830112156101b757816020611d7893359101611d26565b90565b600081815260209060658252604092838220338352835260ff848320541615611da45750505050565b611dad33612431565b845191611db983611ccc565b60428352848301936060368637835115611f145760308553835190600191821015611f145790607860218601536041915b818311611ea657505050611e6457610662938593611e4e93611e3f6048946106b29951988576020b1b1b2b9b9a1b7b73a3937b61d1030b1b1b7bab73a1604d1b8b978801528251928391603789019101611c35565b01036028810185520183611ce8565b5162461bcd60e51b815291829160048301611c58565b60648486519062461bcd60e51b825280600483015260248201527f537472696e67733a20686578206c656e67746820696e73756666696369656e746044820152fd5b909192600f81166010811015611f00576f181899199a1a9b1b9c1cb0b131b232b360811b901a611ed6858861240a565b5360041c928015611eec57600019019190611dea565b634e487b7160e01b82526011600452602482fd5b634e487b7160e01b83526032600452602483fd5b634e487b7160e01b81526032600452602490fd5b906040611f669260009080825260656020528282209360018060a01b03169384835260205260ff8383205416611f69575b81526097602052206125d3565b50565b808252606560205282822084835260205282822060ff1981541690553384827ff6391f5c32d9c69d2a47ea670b442974b53935d1edc7fd64eb21e047a839171b8580a4611f59565b15611fb857565b60405162461bcd60e51b815260206004820152602c60248201527f46756e6374696f6e206d7573742062652063616c6c6564207468726f7567682060448201526b19195b1959d85d1958d85b1b60a21b6064820152608490fd5b1561201957565b60405162461bcd60e51b815260206004820152602c60248201527f46756e6374696f6e206d7573742062652063616c6c6564207468726f7567682060448201526b6163746976652070726f787960a01b6064820152608490fd5b803b156120a85760008051602061280783398151915280546001600160a01b0319166001600160a01b03909216919091179055565b60405162461bcd60e51b815260206004820152602d60248201527f455243313936373a206e657720696d706c656d656e746174696f6e206973206e60448201526c1bdd08184818dbdb9d1c9858dd609a1b6064820152608490fd5b90600182811c92168015612133575b602083101461211d57565b634e487b7160e01b600052602260045260246000fd5b91607f1691612112565b9190820180921161214a57565b634e487b7160e01b600052601160045260246000fd5b6001600160a01b0390811691821561227d571691821561222c57600082815260c96020526040812054918083106121d857604082827fddf252ad1be2c89b69c2b068fc378daa952ba7f163c4a11628f55a4df523b3ef95876020965260c98652038282205586815220818154019055604051908152a3565b60405162461bcd60e51b815260206004820152602660248201527f45524332303a207472616e7366657220616d6f756e7420657863656564732062604482015265616c616e636560d01b6064820152608490fd5b60405162461bcd60e51b815260206004820152602360248201527f45524332303a207472616e7366657220746f20746865207a65726f206164647260448201526265737360e81b6064820152608490fd5b60405162461bcd60e51b815260206004820152602560248201527f45524332303a207472616e736665722066726f6d20746865207a65726f206164604482015264647265737360d81b6064820152608490fd5b6001600160a01b0390811691821561238157169182156123315760207f8c5be1e5ebec7d5bd14f71427d1e84f3dd0314c0f7b2291e5b200ac8c7c3b925918360005260ca8252604060002085600052825280604060002055604051908152a3565b60405162461bcd60e51b815260206004820152602260248201527f45524332303a20617070726f766520746f20746865207a65726f206164647265604482015261737360f01b6064820152608490fd5b60405162461bcd60e51b8152602060048201526024808201527f45524332303a20617070726f76652066726f6d20746865207a65726f206164646044820152637265737360e01b6064820152608490fd5b909190156123de575090565b8151156123ee5750805190602001fd5b60405162461bcd60e51b81529081906106b29060048301611c58565b90815181101561241b570160200190565b634e487b7160e01b600052603260045260246000fd5b6040519061243e82611cb0565b602a825260208201604036823782511561241b5760309053815160019081101561241b57607860218401536029905b8082116124c157505061247d5790565b606460405162461bcd60e51b815260206004820152602060248201527f537472696e67733a20686578206c656e67746820696e73756666696369656e746044820152fd5b9091600f8116601081101561251a576f181899199a1a9b1b9c1cb0b131b232b360811b901a6124f0848661240a565b5360041c91801561250557600019019061246d565b60246000634e487b7160e01b81526011600452fd5b60246000634e487b7160e01b81526032600452fd5b805482101561241b5760005260206000200190600090565b919060018301600090828252806020526040822054156000146125cd57845494680100000000000000008610156125b957836125a9612590886001604098999a0185558461252f565b819391549060031b600019811b9283911b169119161790565b9055549382526020522055600190565b634e487b7160e01b83526041600452602483fd5b50925050565b906001820190600092818452826020526040842054908115156000146126bc57600019918083018181116126a8578254908482019182116126945780820361265f575b5050508054801561264b5782019161262e838361252f565b909182549160031b1b191690555582526020526040812055600190565b634e487b7160e01b86526031600452602486fd5b61267f61266f612590938661252f565b90549060031b1c9283928661252f565b90558652846020526040862055388080612616565b634e487b7160e01b88526011600452602488fd5b634e487b7160e01b87526011600452602487fd5b5050505090565b6101915460405163d994d6d560e01b815233600482015290602090829060249082906001600160a01b03165afa90811561275a57600091612719575b501561270757565b604051631dd1b1b560e21b8152600490fd5b6020813d8211612752575b8161273160209383611ce8565b8101031261274e575190811515820361274b5750386126ff565b80fd5b5080fd5b3d9150612724565b6040513d6000823e3d90fd5b1561276d57565b60405162461bcd60e51b815260206004820152602b60248201527f496e697469616c697a61626c653a20636f6e7472616374206973206e6f74206960448201526a6e697469616c697a696e6760a81b6064820152608490fdfe2f8788117e7eff1d82e926ec794901d17c78024a50270940304540a733656f0d3c11d16cbaffd01df69ce1c404f6340ee057498f5f00246190ea54220576a848360894a13ba1a3210667c828492db98dca3e2076cc3735a920a3ca505d382bbc9f2df0fed2c77648de5860a4cc508cd0818c85b8b8a1ab4ceeef8d981c8956a647197230e1e4b29fc0bd84d7d78966c0925452aff72a2a121538b102457e9ebea26469706673582212203aaf4c65bdb96280677387d3c9c39a70903db907a4ca940ade5e9d69462cda3364736f6c63430008110033",
  "linkReferences": {},
  "deployedLinkReferences": {}
}